:100000000C942A000C9447000C9447000C94470071
:100010000C9447000C9447000C9447000C94470044
:100020000C9447000C9447000C9447000C94470034
:100030000C9447000C9448160C9447000C9447000D
:100040000C944F060C9447000C9447000C94470006
:100050000C94470011241FBECFE5D8E0DEBFCDBF12
:1000600011E0A0E6B0E0E8E7FEE302C005900D92E3
:10007000AA34B107D9F711E0AAE4B1E001C01D929A
:10008000AD38B107E1F70E94E0060C943A1F0C94DA
:100090000000EF92FF920F931F937B018C0120E0F1
:1000A00030E040E05FE40E94F50388238CF0C80153
:1000B000B70120E030E040E05FE40E94C1010E940F
:1000C00055049B01AC01205030404040504806C0D0
:1000D000C801B7010E9455049B01AC01B901CA01D6
:1000E0001F910F91FF90EF900895A0E0B0E0EBE733
:1000F000F0E00C94FC1EDC012B01FA019C91923083
:1001000008F439C1EB018881823008F433C194309E
:1001100069F4843009F02FC111969C91119789815F
:10012000981709F428C1A1E0B1E025C1843009F491
:1001300021C18230A9F4923009F01DC19A01AD01AC
:1001400088E0EA010990AE01E90109929E0181501F
:10015000C1F7E201898111969C918923818308C1AD
:10016000923009F407C112962D903C901397EB0141
:100170008A819B811496AD90BD90CD90DC901797AD
:10018000EC80FD800E811F819101281B390BB90184
:1001900037FF04C066277727621B730B6032710537
:1001A0000CF061C0121613066CF537014801062EDB
:1001B00004C096948794779467940A94D2F721E0C8
:1001C00030E040E050E004C0220F331F441F551FB1
:1001D0006A95D2F721503040404050402E213F21B7
:1001E00040235123211531054105510521F021E01E
:1001F00030E040E050E079018A01E628F72808293C
:1002000019293CC0232BD1F1260E371E350146019A
:10021000062E04C096948794779467940A94D2F734
:1002200021E030E040E050E004C0220F331F441FC3
:10023000551F6A95D2F721503040404050402A2146
:100240003B214C215D21211531054105510521F04E
:1002500021E030E040E050E059016A01A628B728CB
:10026000C828D9280BC0821593052CF01C01AA249C
:10027000BB24650103C0EE24FF24870111969C91E5
:10028000D20111968C91981709F445C0992339F041
:10029000A80197012A193B094C095D0906C0A6016E
:1002A00095012E193F09400B510B57FD08C01182D3
:1002B0003382228224833583468357831DC081E0A5
:1002C00081833382228288279927DC01821B930B4A
:1002D000A40BB50B84839583A683B7830DC0220F2F
:1002E000331F441F551F24833583468357838281E0
:1002F000938101979383828324813581468157813D
:10030000DA01C9010197A109B1098F5F9F4FAF4F72
:10031000BF4328F30BC0918333822282EA0CFB1C7B
:100320000C1D1D1DE482F5820683178383E0808304
:10033000248135814681578157FF1AC0C901AA27F8
:1003400097FDA095BA2F81709070A070B0705695EF
:10035000479537952795822B932BA42BB52B848318
:100360009583A683B7838281938101969383828349
:10037000DF0101C0D201CD01CDB7DEB7E2E10C94BF
:10038000181FA0E2B0E0E7ECF1E00C94081F6983CD
:100390007A838B839C832D833E834F835887E9E048
:1003A000EE2EF12CEC0EFD1ECE010196B7010E943F
:1003B0007E058E010F5E1F4FCE010596B8010E948B
:1003C0007E058A8991E089278A8BC701B801AE0131
:1003D000475E5F4F0E9475000E94A904A096E6E068
:1003E0000C94241FA0E2B0E0E8EFF1E00C94081FA9
:1003F00069837A838B839C832D833E834F835887C5
:10040000F9E0EF2EF12CEC0EFD1ECE010196B701A6
:100410000E947E058E010F5E1F4FCE010596B8012A
:100420000E947E05C701B801AE01475E5F4F0E9482
:1004300075000E94A904A096E6E00C94241FA0E297
:10044000B0E0E5E2F2E00C94FC1E69837A838B83D2
:100450009C832D833E834F835887CE010196BE0136
:10046000675F7F4F0E947E05CE010596BE016F5EDD
:100470007F4F0E947E059985923088F0898982306D
:10048000C8F0943019F4823051F404C0843029F457
:10049000923081F481E091E0C6C0923049F420E0CE
:1004A0009A858A89981321E02A87CE010996BBC0D4
:1004B000823049F420E09A858A89981321E02A8BBA
:1004C000CE014196B0C02D843E844F8458886D88FB
:1004D0007E888F88988CEE24FF248701AA24BB2471
:1004E000650140E050E060E070E0E0E0F0E0C10174
:1004F00081709070892BE9F0E60CF71C081D191D1E
:100500009A01AB012A0D3B1D4C1D5D1D80E090E062
:10051000A0E0B0E0E614F7040805190520F481E036
:1005200090E0A0E0B0E0BA01A901480F591F6A1F8E
:100530007B1FAA0CBB1CCC1CDD1C97FE08C081E0F5
:1005400090E0A0E0B0E0A82AB92ACA2ADB2A3196B6
:10055000E032F10549F0660C771C881C991C569412
:10056000479437942794C3CFFA85EA892B893C892D
:100570008B859C85280F391F2E5F3F4F17C0CA01FE
:1005800081709070892B61F016950795F794E79428
:1005900080E090E0A0E0B0E8E82AF92A0A2B1B2BC3
:1005A00076956795579547952F5F3F4F77FDE7CF36
:1005B0000CC0440F551F661F771F17FD4160EE0CDE
:1005C000FF1C001F111F21503040403090E05907A0
:1005D00090E0690790E4790760F32B8F3C8FDB0193
:1005E000CA018F779070A070B07080349105A1051A
:1005F000B10561F447FD0AC0E114F10401051105DC
:1006000029F0405C5F4F6F4F7F4F40781A8EFE1786
:1006100011F081E08A8F4D8F5E8F6F8F78A383E01A
:10062000898FCE0149960E94A904A096E2E10C941C
:10063000181FA8E1B0E0EFE1F3E00C94041F698318
:100640007A838B839C832D833E834F835887B9E0C5
:10065000EB2EF12CEC0EFD1ECE010196B7010E948F
:100660007E058E010F5E1F4FCE010596B8010E94D8
:100670007E052985223008F47EC03989323010F495
:10068000B8017CC08A859A8989278A87243011F02D
:10069000223031F4231709F06EC061E071E06EC0C2
:1006A000343039F41D861E861F86188A1C861B86E8
:1006B00004C0323021F484E08987B7015FC02B8504
:1006C0003C858B899C89281B390B3C872B87ED84C3
:1006D000FE840F851889AD88BE88CF88D88CEA142F
:1006E000FB040C051D0540F4EE0CFF1C001F111F40
:1006F000215030403C872B8720E030E040E050E044
:1007000080E090E0A0E0B0E460E070E0EA14FB0478
:100710000C051D0540F0282B392B4A2B5B2BEA18C2
:10072000FB080C091D09B695A79597958795EE0CC2
:10073000FF1C001F111F6F5F7F4F6F31710531F775
:10074000DA01C9018F779070A070B0708034910584
:10075000A105B10561F427FD0AC0E114F10401050A
:10076000110529F0205C3F4F4F4F5F4F20782D87B8
:100770003E874F87588BBE01675F7F4FCB010E943A
:10078000A9046896EAE00C94201FA8E1B0E0EBEC25
:10079000F3E00C94081F69837A838B839C832D83F9
:1007A0003E834F83588789E0E82EF12CEC0EFD1E26
:1007B000CE010196B7010E947E058E010F5E1F4F8C
:1007C000CE010596B8010E947E058985823040F0F1
:1007D0008989823028F0C701B8010E94F60501C05E
:1007E0008FEF6896E6E00C94241FA8E1B0E0EBEFF1
:1007F000F3E00C94081F69837A838B839C832D8399
:100800003E834F83588789E0E82EF12CEC0EFD1EC5
:10081000CE010196B7010E947E058E010F5E1F4F2B
:10082000CE010596B8010E947E058985823040F090
:100830008989823028F0C701B8010E94F60501C0FD
:100840008FEF6896E6E00C94241FA8E1B0E0EBE29D
:10085000F4E00C94081F69837A838B839C832D8337
:100860003E834F83588789E0E82EF12CEC0EFD1E65
:10087000CE010196B7010E947E058E010F5E1F4FCB
:10088000CE010596B8010E947E058985823040F030
:100890008989823028F0C701B8010E94F60501C09D
:1008A00081E06896E6E00C94241FACE0B0E0EBE554
:1008B000F4E00C940C1F69837A838B839C83CE01B4
:1008C0000196BE016B5F7F4F0E947E058D81823055
:1008D00061F1823050F1843021F48E81882351F10E
:1008E0002EC02F81388537FD20C06E812F31310514
:1008F0001CF06623F9F023C08EE190E0821B930B7D
:1009000029853A854B855C8504C056954795379572
:1009100027958A95D2F76623B1F05095409530958A
:1009200021953F4F4F4F5F4F0EC020E030E040E039
:1009300050E009C02FEF3FEF4FEF5FE704C020E02A
:1009400030E040E050E8B901CA012C96E2E00C9496
:10095000281FDF92EF92FF920F931F93FC01E48018
:10096000F58006811781D1808081823048F480E053
:1009700090E0A0E1B0E0E82AF92A0A2B1B2BA5C0E1
:10098000843009F49FC0823021F4EE24FF248701D3
:1009900005C0E114F1040105110519F4E0E0F0E0EF
:1009A00096C0628173819FEF623879070CF05BC05B
:1009B00022E83FEF261B370B2A3131052CF020E0CF
:1009C00030E040E050E02AC0B801A701022E04C088
:1009D00076956795579547950A94D2F781E090E010
:1009E000A0E0B0E004C0880F991FAA1FBB1F2A9582
:1009F000D2F70197A109B1098E219F21A023B1232C
:100A00000097A105B10521F081E090E0A0E0B0E001
:100A10009A01AB01282B392B4A2B5B2BDA01C90138
:100A20008F779070A070B07080349105A105B105EA
:100A300039F427FF09C0205C3F4F4F4F5F4F04C080
:100A4000215C3F4F4F4F5F4FE0E0F0E02030A0E0EF
:100A50003A07A0E04A07A0E45A0710F0E1E0F0E00E
:100A600079018A0127C06038710564F5FB01E158FE
:100A7000FF4FD801C7018F779070A070B07080349D
:100A80009105A105B10539F4E7FE0DC080E490E0C1
:100A9000A0E0B0E004C08FE390E0A0E0B0E0E80E9A
:100AA000F91E0A1F1B1F17FF05C016950795F7941F
:100AB000E794319687E016950795F794E7948A9521
:100AC000D1F705C0EE24FF248701EFEFF0E06E2F91
:100AD000679566276795902F9F77D794DD24D794E5
:100AE0008E2F8695492F462B582F5D29B701CA01B5
:100AF0001F910F91FF90EF90DF900895FC01DB01B3
:100B0000408151812281622F6F7770E0221F22275E
:100B1000221F9381892F880F822B282F30E0991F65
:100B20009927991F11969C93119721153105A9F5C5
:100B3000411551056105710511F482E037C082E865
:100B40009FEF13969C938E9312979A01AB0167E0E7
:100B5000220F331F441F551F6A95D1F783E08C93F2
:100B60000DC0220F331F441F551F12968D919C916B
:100B70001397019713969C938E931297203080E0E1
:100B8000380780E0480780E4580758F314962D93FF
:100B90003D934D935C93179708952F3F310579F45A
:100BA000411551056105710519F484E08C93089590
:100BB00064FF03C081E08C9312C01C9210C02F57B9
:100BC000304013963C932E93129783E08C9387E0EA
:100BD000440F551F661F771F8A95D1F770641496CE
:100BE0004D935D936D937C93179708951F93DC014C
:100BF000FB019C91923008F447C08081823008F458
:100C000043C0943051F411961C91843099F5818140
:100C1000682F70E0611B71093FC0843021F0923071
:100C200031F48230B9F18181882389F12DC0119688
:100C30001C9111978230F1F081811817D9F4129626
:100C40002D913C911397828193818217930794F0A1
:100C500028173907BCF014968D919D910D90BC9189
:100C6000A02D2481358146815781281739074A07ED
:100C70005B0718F4112341F00AC082179307A407F9
:100C8000B50740F4112319F061E070E005C06FEF83
:100C90007FEF02C060E070E0CB011F9108951F92CA
:100CA0000F920FB60F9211242F938F939F93EF9370
:100CB000FF93DF93CF93CDB7DEB780914F018130A3
:100CC000A1F4E4E2F0E08081282FE5E2F0E0808109
:100CD000882F90E0982F8827822B8093730181E0E2
:100CE0008093670110924F015FC080915301813062
:100CF000A1F4E4E2F0E08081282FE5E2F0E08081D9
:100D0000882F90E0982F8827822B8093710181E0B3
:100D100080936B011092530147C080915401813040
:100D2000A1F4E4E2F0E08081282FE5E2F0E08081A8
:100D3000882F90E0982F8827822B80936F0181E085
:100D400080936C01109254012FC080915501813025
:100D5000A1F4E4E2F0E08081282FE5E2F0E0808178
:100D6000882F90E0982F8827822B8093720181E052
:100D700080936D011092550117C08091560181300A
:100D800099F4E4E2F0E08081282FE5E2F0E0808150
:100D9000882F90E0982F8827822B8093700181E024
:100DA00080936E0110925601CF91DF91FF91EF91E8
:100DB0009F918F912F910F900FBE0F901F901895BC
:100DC0000F931F93DF93CF93CDB7DEB7CD5ED040A7
:100DD0000FB6F894DEBF0FBECDBFCE010296CE5443
:100DE000DF4F99838883C25BD040E0E6F0E0CC54CB
:100DF000DF4FF983E883C45BD040F6E0CA54DF4F8D
:100E0000F883C65BD040CC54DF4FE881F981C45BE6
:100E1000D0400080CC54DF4F88819981C45BD040A2
:100E20000196CC54DF4F99838883C45BD040CE5465
:100E3000DF4FE881F981C25BD0400082CE54DF4FA2
:100E400088819981C25BD0400196CE54DF4F99834F
:100E50008883C25BD040CA54DF4F9881C65BD040C4
:100E60009150CA54DF4F9883C65BD040CA54DF4FBD
:100E7000E881C65BD040EE2331F6CE0108962AE029
:100E800030E060E070E0A9010E94331FCE0142967D
:100E9000C954DF4F99838883C75BD040E0E7F0E017
:100EA000C754DF4FF983E883C95BD040FBE0C554EA
:100EB000DF4FF883CB5BD040C754DF4FE881F98127
:100EC000C95BD0400080C754DF4F88819981C95BDE
:100ED000D0400196C754DF4F99838883C95BD040C7
:100EE000C954DF4FE881F981C75BD0400082C95403
:100EF000DF4F88819981C75BD0400196C954DF4F8D
:100F000099838883C75BD040C554DF4F9881CB5B02
:100F1000D0409150C554DF4F9883CB5BD040C5542F
:100F2000DF4FE881CB5BD040EE2331F6CE014D960A
:100F300025E030E060E070E0A9010E94331FCE019F
:100F40008296C454DF4F99838883CC5BD040E0E81D
:100F5000F0E0C254DF4FF983E883CE5BD040FAE083
:100F6000C054DF4FF883C05CD040C254DF4FE881EB
:100F7000F981CE5BD0400080C254DF4F88819981D7
:100F8000CE5BD0400196C254DF4F99838883CE5BFD
:100F9000D040C454DF4FE881F981CC5BD04000825F
:100FA000C454DF4F88819981CC5BD0400196C454F2
:100FB000DF4F99838883CC5BD040C054DF4F98814A
:100FC000C05CD0409150C054DF4F9883C05CD0408B
:100FD000C054DF4FE881C05CD040EE2331F6CE0133
:100FE0008C9626E030E060E070E0A9010E94331F9B
:100FF000CE01C296CF53DF4F99838883C15CD04026
:10100000E0E9F0E0CD53DF4FF983E883C35CD040E3
:10101000FCE0CB53DF4FF883C55CD040CD53DF4FAE
:10102000E881F981C35CD0400080CD53DF4F8881D7
:101030009981C35CD0400196CD53DF4F998388835B
:10104000C35CD040CF53DF4FE881F981C15CD04011
:101050000082CF53DF4F88819981C15CD0400196D7
:10106000CF53DF4F99838883C15CD040CB53DF4F90
:101070009881C55CD0409150CB53DF4F9883C55CBD
:10108000D040CB53DF4FE881C55CD040EE2331F632
:10109000FE01FE961082118212821382CE018E5BB7
:1010A0009F4FCA53DF4F99838883C65CD040CA5391
:1010B000DF4FE881F981C65CD040C853DF4FF98328
:1010C000E883C85CD04080EA90E0C653DF4F998344
:1010D0008883CA5CD04098E0C453DF4F9883CC5CCF
:1010E000D040C653DF4FE881F981CA5CD040008010
:1010F000C653DF4F88819981CA5CD0400196C653A0
:10110000DF4F99838883CA5CD040C853DF4FE881A2
:10111000F981C85CD0400082C853DF4F8881998133
:10112000C85CD0400196C853DF4F99838883C85C60
:10113000D040C453DF4F9881CC5CD0409150C45311
:10114000DF4F9883CC5CD040C453DF4FE881CC5C48
:10115000D040EE2331F6CA53DF4F88819981C65CB7
:10116000D040089628E030E060E070E0A9010E94DD
:10117000331FCE018E5A9F4FC353DF4F998388830D
:10118000CD5CD040C353DF4FE881F981CD5CD040C6
:10119000C153DF4FF983E883CF5CD04080EB90E010
:1011A000CF52DF4F99838883C15DD04096E0CD5206
:1011B000DF4F9883C35DD040CF52DF4FE881F98184
:1011C000C15DD0400080CF52DF4F88819981C15DE1
:1011D000D0400196CF52DF4F99838883C15DD040C4
:1011E000C153DF4FE881F981CF5CD0400082C15309
:1011F000DF4F88819981CF5CD0400196C153DF4F8A
:1012000099838883CF5CD040CD52DF4F9881C35DF6
:10121000D0409150CD52DF4F9883C35DD040CD5226
:10122000DF4FE881C35DD040EE2331F6C353DF4F7B
:1012300088819981CD5CD04006962AE030E060E05C
:1012400070E0A9010E94331FCE018E599F4FCC52EE
:10125000DF4F99838883C45DD040CC52DF4FE88153
:10126000F981C45DD040CA52DF4FF983E883C65D7F
:10127000D04080EC90E0C852DF4F99838883C85DEE
:10128000D0409FE0C652DF4F9883CA5DD040C8521D
:10129000DF4FE881F981C85DD0400080C852DF4F40
:1012A00088819981C85DD0400196C852DF4F9983EB
:1012B0008883C85DD040CA52DF4FE881F981C65D9E
:1012C000D0400082CA52DF4F88819981C65DD040EC
:1012D0000196CA52DF4F99838883C65DD040C652BB
:1012E000DF4F9881CA5DD0409150C652DF4F98833E
:1012F000CA5DD040C652DF4FE881CA5DD040EE23C0
:1013000031F6CC52DF4FE881F981C45DD0401786B9
:10131000CE018E589F4FC552DF4F99838883CB5D96
:10132000D04080ED90E0C352DF4F99838883CD5D3C
:10133000D04090E1C152DF4F9883CF5DD040C3527F
:10134000DF4FE881F981CD5DD0400080C352DF4F8F
:1013500088819981CD5DD0400196C352DF4F99833A
:101360008883CD5DD040C552DF4FE881F981CB5DE8
:10137000D0400082C552DF4F88819981CB5DD0403B
:101380000196C552DF4F99838883CB5DD040C1520F
:10139000DF4F9881CF5DD0409150C152DF4F98838D
:1013A000CF5DD040C152DF4FE881CF5DD040EE230A
:1013B00031F6CE018E579F4FC052DF4F99838883FD
:1013C000C05ED040C052DF4FE881F981C05ED0409E
:1013D000CE51DF4FF983E883C25ED04081EE90E0CA
:1013E000CC51DF4F99838883C45ED0409CE0CA51C2
:1013F000DF4F9883C65ED040CC51DF4FE881F98142
:10140000C45ED0400080CC51DF4F88819981C45E9A
:10141000D0400196CC51DF4F99838883C45ED04081
:10142000CE51DF4FE881F981C25ED0400082CE51BB
:10143000DF4F88819981C25ED0400196CE51DF4F47
:1014400099838883C25ED040CA51DF4F9881C65EBF
:10145000D0409150CA51DF4F9883C65ED040CA51E8
:10146000DF4FE881C65ED040EE2331F6C052DF4F39
:10147000E881F981C05ED0401486158616861786ED
:10148000CE018E569F4FC951DF4F99838883C75E27
:10149000D040C951DF4FE881F981C75ED040C751C4
:1014A000DF4FF983E883C95ED04081EF90E0C551FA
:1014B000DF4F99838883CB5ED0409AE0C351DF4FE2
:1014C0009883CD5ED040C551DF4FE881F981CB5E76
:1014D000D0400080C551DF4F88819981CB5ED040DC
:1014E0000196C551DF4F99838883CB5ED040C751A9
:1014F000DF4FE881F981C95ED0400082C751DF4FDC
:1015000088819981C95ED0400196C751DF4F998388
:101510008883C95ED040C351DF4F9881CD5ED040F3
:101520009150C351DF4F9883CD5ED040C351DF4F00
:10153000E881CD5ED040EE2331F6C951DF4F88817E
:101540009981C75ED0400A9626E030E060E070E006
:10155000A9010E94331F19820E9496160E94CC0F87
:1015600080E060E00E9479140E941A1C0E94AA1474
:1015700080E00E944B1D84E00E944B1D85E00E948C
:101580004B1D86E00E944B1D87E00E944B1D809101
:101590007301863108F463C080917101873108F4CA
:1015A0005EC080916F01873108F459C0809172014B
:1015B000873108F454C080917001873108F44FC01E
:1015C000198213C08981482F50E08981282F30E08B
:1015D000CE010296FC01E20FF31F2081CA01622FA7
:1015E0000E94B31489818F5F89838981282F30E01D
:1015F000CE010296FC01E20FF31F8081882311F7D0
:1016000019821FC08981082F10E08981882F90E0FE
:101610000E94DE14282FCE018E559F4FFC01E00F53
:10162000F11F208389818F5F89838981282F30E092
:10163000CE018E559F4FFC01E20FF31F80810E9467
:1016400050148981282F30E0CE010296FC01E20F70
:10165000F31F80818823B1F60E94A01489CF809166
:101660007301853108F063C080917101863108F003
:101670005EC080916F01873108F459C0809172017A
:10168000873108F454C080917001873108F44FC04D
:10169000198213C08981482F50E08981282F30E0BA
:1016A000CE014296FC01E20FF31F2081CA01622F96
:1016B0000E94B31489818F5F89838981282F30E04C
:1016C000CE014296FC01E20FF31F8081882311F7BF
:1016D00019821FC08981082F10E08981882F90E02E
:1016E0000E94DE14282FCE018E559F4FFC01E00F83
:1016F000F11F208389818F5F89838981282F30E0C2
:10170000CE018E559F4FFC01E20FF31F80810E9496
:1017100050148981282F30E0CE014296FC01E20F5F
:10172000F31F80818823B1F60E94A01421CF8091FD
:101730007301853108F063C080917101863108F032
:101740005EC080916F01863108F059C080917201AE
:10175000863108F054C080917001863108F04FC086
:10176000198213C08981482F50E08981282F30E0E9
:10177000CE018296FC01E20FF31F2081CA01622F85
:101780000E94B31489818F5F89838981282F30E07B
:10179000CE018296FC01E20FF31F8081882311F7AE
:1017A00019821FC08981082F10E08981882F90E05D
:1017B0000E94DE14282FCE018E559F4FFC01E00FB2
:1017C000F11F208389818F5F89838981282F30E0F1
:1017D000CE018E559F4FFC01E20FF31F80810E94C6
:1017E00050148981282F30E0CE018296FC01E20F4F
:1017F000F31F80818823B1F60E94A014B9CE809196
:101800007301863108F463C080917101873108F457
:101810005EC080916F01873108F459C080917001DA
:10182000873108F454C080917201863108F04FC0AE
:10183000198213C08981482F50E08981282F30E018
:10184000CE01C296FC01E20FF31F2081CA01622F74
:101850000E94B31489818F5F89838981282F30E0AA
:10186000CE01C296FC01E20FF31F8081882311F79D
:1018700019821FC08981082F10E08981882F90E08C
:101880000E94DE14282FCE018E559F4FFC01E00FE1
:10189000F11F208389818F5F89838981282F30E020
:1018A000CE018E559F4FFC01E20FF31F80810E94F5
:1018B00050148981282F30E0CE01C296FC01E20F3E
:1018C000F31F80818823B1F60E94A01451CE80912D
:1018D0007101863108F066C080917001863108F090
:1018E00061C080916F01863108F05CC08091720107
:1018F000863108F057C080917301863108F452C0D8
:10190000198214C08981482F50E08981282F30E046
:10191000CE018E5B9F4FFC01E20FF31F2081CA01B5
:10192000622F0E94B31489818F5F89838981282F58
:1019300030E0CE018E5B9F4FFC01E20FF31F8081F0
:10194000882301F719821FC08981082F10E089813F
:10195000882F90E00E94DE14282FCE018E559F4FD5
:10196000FC01E00FF11F208389818F5F89838981CA
:10197000282F30E0CE018E559F4FFC01E20FF31F60
:1019800080810E9450148981282F30E0CE018E5B27
:101990009F4FFC01E20FF31F80818823A9F60E946C
:1019A000A014E6CD80917301853108F066C0809166
:1019B0007001863108F061C080916F01863108F0B6
:1019C0005CC080917201863108F057C0809171012E
:1019D000873108F452C0198214C08981482F50E021
:1019E0008981282F30E0CE018E5A9F4FFC01E20FF3
:1019F000F31F2081CA01622F0E94B31489818F5F77
:101A000089838981282F30E0CE018E5A9F4FFC01B7
:101A1000E20FF31F8081882301F719821FC089819B
:101A2000082F10E08981882F90E00E94DE14282F73
:101A3000CE018E559F4FFC01E00FF11F208389815D
:101A40008F5F89838981282F30E0CE018E559F4F8B
:101A5000FC01E20FF31F80810E9450148981282F1E
:101A600030E0CE018E5A9F4FFC01E20FF31F8081C0
:101A70008823A9F60E94A0147BCD80917301853143
:101A800008F066C080917101863108F061C08091D4
:101A90006F01863108F05CC080917201863108F0D8
:101AA00057C080917001873108F452C0198214C068
:101AB0008981482F50E08981282F30E0CE018E594E
:101AC0009F4FFC01E20FF31F2081CA01622F0E9489
:101AD000B31489818F5F89838981282F30E0CE01FB
:101AE0008E599F4FFC01E20FF31F8081882301F77D
:101AF00019821FC08981082F10E08981882F90E00A
:101B00000E94DE14282FCE018E559F4FFC01E00F5E
:101B1000F11F208389818F5F89838981282F30E09D
:101B2000CE018E559F4FFC01E20FF31F80810E9472
:101B300050148981282F30E0CE018E599F4FFC012F
:101B4000E20FF31F80818823A9F60E94A01410CD14
:101B500080917301863108F066C080916F018631F3
:101B600008F061C080917201863108F05CC08091FC
:101B70007101873108F457C080917001873108F4F2
:101B800052C0198214C08981482F50E08981282FC2
:101B900030E0CE018E589F4FFC01E20FF31F2081F1
:101BA000CA01622F0E94B31489818F5F8983898162
:101BB000282F30E0CE018E589F4FFC01E20FF31F1B
:101BC0008081882301F719821FC08981082F10E0C6
:101BD0008981882F90E00E94DE14282FCE018E5537
:101BE0009F4FFC01E00FF11F208389818F5F898364
:101BF0008981282F30E0CE018E559F4FFC01E20FE6
:101C0000F31F80810E9450148981282F30E0CE017B
:101C10008E589F4FFC01E20FF31F80818823A9F6A5
:101C20000E94A014A5CC80917301873108F466C08E
:101C300080917101873108F461C080917001873112
:101C400008F45CC080916F01863108F057C0809124
:101C50007201863108F052C0198214C08981482F60
:101C600050E08981282F30E0CE018E579F4FFC0134
:101C7000E20FF31F2081CA01622F0E94B3148981F1
:101C80008F5F89838981282F30E0CE018E579F4F47
:101C9000FC01E20FF31F8081882301F719821FC026
:101CA0008981082F10E08981882F90E00E94DE143E
:101CB000282FCE018E559F4FFC01E00FF11F20838E
:101CC00089818F5F89838981282F30E0CE018E55ED
:101CD0009F4FFC01E20FF31F80810E945014898105
:101CE000282F30E0CE018E579F4FFC01E20FF31FEB
:101CF00080818823A9F60E94A0143ACC80917301B8
:101D0000863108F035CC80917201863108F030CCF4
:101D100080917001863108F02BCC80917101873160
:101D200008F426CC80916F01873108F421CC198208
:101D300014C08981482F50E08981282F30E0CE01DE
:101D40008E569F4FFC01E20FF31F2081CA01622FC4
:101D50000E94B31489818F5F89838981282F30E0A5
:101D6000CE018E569F4FFC01E20FF31F8081882326
:101D700001F719821FC08981082F10E08981882FFF
:101D800090E00E94DE14282FCE018E559F4FFC015B
:101D9000E00FF11F208389818F5F89838981282F3C
:101DA00030E0CE018E559F4FFC01E20FF31F808182
:101DB0000E9450148981282F30E0CE018E569F4F0B
:101DC000FC01E20FF31F80818823A9F60E94A01472
:101DD000CFCBDF93CF93CDB7DEB782E062E041E0B7
:101DE0000E94CF1882E067E041E00E94CF1883E0B4
:101DF00063E041E00E94CF18CF91DF910895DF9317
:101E0000CF9300D00F92CDB7DEB789838981282F79
:101E100030E03B832A838A819B818130910579F070
:101E20002A813B812230310581F08A819B81009794
:101E300089F482E062E041E00E94B2190BC082E0C6
:101E400067E041E00E94B21905C083E063E041E031
:101E50000E94B2190F900F900F90CF91DF910895CB
:101E6000DF93CF9300D00F92CDB7DEB789838981FE
:101E7000282F30E03B832A838A819B818130910522
:101E800079F02A813B812230310581F08A819B8162
:101E9000009789F482E062E040E00E94B2190BC032
:101EA00082E067E040E00E94B21905C083E063E091
:101EB00040E00E94B2190F900F900F90CF91DF91E8
:101EC0000895DF93CF9300D00F92CDB7DEB789830B
:101ED0008981282F30E03B832A838A819B8181304E
:101EE000910571F02A813B812230310571F08A81A0
:101EF0009B81009771F482E062E00E94951A09C00C
:101F000082E067E00E94951A04C083E063E00E94CB
:101F1000951A0F900F900F90CF91DF910895DF9356
:101F2000CF9300D0CDB7DEB71A82198219822CC0A8
:101F30008981882F90E00896880F991F880F991F34
:101F4000880F991F0E942D131A8218C08981482F6B
:101F500050E08A81282F30E0CA01880F991F880F2E
:101F6000991F880F991F820F931FFC01E75FFE4F97
:101F700080810E9450148A818F5F8A838A81883091
:101F800028F389818F5F89838981883088F20F9057
:101F90000F90CF91DF910895DF93CF93CDB7DEB748
:101FA000E4970FB6F894DEBF0FBECDBF82E060E0CD
:101FB00041E00E94CF1882E061E041E00E94CF182A
:101FC00082E062E041E00E94CF1882E063E041E0FD
:101FD0000E94CF1881E061E041E00E94CF1881E0CB
:101FE00062E041E00E94CF1881E063E041E00E949E
:101FF000CF1881E062E040E00E94B21980E090E0FA
:10200000A0E7B1E489AB9AABABABBCAB69A97AA949
:102010008BA99CA920E030E04AE755E40E941F020A
:10202000DC01CB018DA79EA7AFA7B8AB6DA57EA5A0
:102030008FA598A920E030E040E85FE30E942504E6
:1020400088232CF481E090E09CA78BA73FC06DA56E
:102050007EA58FA598A920E03FEF4FE757E40E94A7
:10206000C50318164CF569A97AA98BA99CA920E08B
:1020700030E040E251E40E941F02DC01CB01BC01D0
:10208000CD010E944900DC01CB019CA78BA70FC0AA
:1020900080E991E09AA789A789A59AA50197F1F708
:1020A0009AA789A78BA59CA501979CA78BA78BA511
:1020B0009CA5009769F714C06DA57EA58FA598A96A
:1020C0000E944900DC01CB019CA78BA78BA59CA596
:1020D00098A78FA38FA198A50197F1F798A78FA331
:1020E00083E00E942D1380E090E0A0EAB0E48BA38F
:1020F0009CA3ADA3BEA36BA17CA18DA19EA120E05A
:1021000030E04AE755E40E941F02DC01CB018F8FCB
:1021100098A3A9A3BAA36F8D78A189A19AA120E061
:1021200030E040E85FE30E94250488232CF481E03E
:1021300090E09E8F8D8F3FC06F8D78A189A19AA16D
:1021400020E03FEF4FE757E40E94C50318164CF517
:102150006BA17CA18DA19EA120E030E040E251E482
:102160000E941F02DC01CB01BC01CD010E9449008D
:10217000DC01CB019E8F8D8F0FC080E991E09C8F99
:102180008B8F8B8D9C8D0197F1F79C8F8B8F8D8D15
:102190009E8D01979E8F8D8F8D8D9E8D009769F7F7
:1021A00014C06F8D78A189A19AA10E944900DC0119
:1021B000CB019E8F8D8F8D8D9E8D9A8F898F898D6E
:1021C0009A8D0197F1F79A8F898F83E00E942D13E2
:1021D00080E090E0A8ECB2E48D8B9E8BAF8BB88F43
:1021E0006D897E898F89988D2BEA3AEA4AEA50E414
:1021F0000E941F02DC01CB01898B9A8BAB8BBC8BBD
:1022000069897A898B899C8920E030E040E85FE326
:102210000E94250488231CF481E0888B91C0698981
:102220007A898B899C8920E030E04FE753E40E9453
:10223000C50318160CF07BC06D897E898F89988D37
:1022400020E030E04AE754E40E941903DC01CB01AE
:102250008C879D87AE87BF876C857D858E859F85A2
:1022600020E030E04AE755E40E941F02DC01CB0188
:1022700088879987AA87BB87688579858A859B85A2
:1022800020E030E040E85FE30E94250488232CF43E
:1022900081E090E09F838E833FC0688579858A8541
:1022A0009B8520E03FEF4FE757E40E94C5031816D7
:1022B0004CF56C857D858E859F8520E030E040E281
:1022C00051E40E941F02DC01CB01BC01CD010E9440
:1022D0004900DC01CB019F838E830FC080E991E030
:1022E0009D838C838C819D810197F1F79D838C83E5
:1022F0008E819F8101979F838E838E819F8100971E
:1023000069F724C0688579858A859B850E94490084
:10231000DC01CB019F838E838E819F819B838A8387
:102320008A819B810197F1F79B838A830FC069891A
:102330007A898B899C890E944900DC01CB01888BBA
:102340008889898389818A95F1F7898383E00E944E
:102350002D1382E00E942D1388E20E942D130E940B
:102360008F0FE4960FB6F894DEBF0FBECDBFCF91AE
:10237000DF910895DF93CF93CDB7DEB7A6970FB661
:10238000F894DEBF0FBECDBF81E063E041E00E9464
:10239000B21980E090E0A0E8BFE38BA39CA3ADA3BB
:1023A000BEA36BA17CA18DA19EA12BEA3AEA4AEAC9
:1023B00050E40E941F02DC01CB018F8F98A3A9A3D8
:1023C000BAA36F8D78A189A19AA120E030E040E8FE
:1023D0005FE30E94250488231CF481E08E8F91C066
:1023E0006F8D78A189A19AA120E030E04FE753E4F6
:1023F0000E94C50318160CF07BC06BA17CA18DA1B7
:102400009EA120E030E04AE754E40E941903DC0179
:10241000CB018A8F9B8FAC8FBD8F6A8D7B8D8C8D0E
:102420009D8D20E030E04AE755E40E941F02DC0168
:10243000CB018E8B9F8BA88FB98F6E897F89888DFA
:10244000998D20E030E040E85FE30E942504882376
:102450002CF481E090E09D8B8C8B3FC06E897F894E
:10246000888D998D20E03FEF4FE757E40E94C50328
:1024700018164CF56A8D7B8D8C8D9D8D20E030E09B
:1024800040E251E40E941F02DC01CB01BC01CD01FE
:102490000E944900DC01CB019D8B8C8B0FC080E931
:1024A00091E09B8B8A8B8A899B890197F1F79B8BA3
:1024B0008A8B8C899D8901979D8B8C8B8C899D89BA
:1024C000009769F724C06E897F89888D998D0E9455
:1024D0004900DC01CB019D8B8C8B8C899D89998B6C
:1024E000888B888999890197F1F7998B888B0FC020
:1024F0006F8D78A189A19AA10E944900DC01CB01CE
:102500008E8F8E8D8F878F858A95F1F78F8781E0EB
:1025100063E040E00E94B21980E090E0A0E0B0E407
:102520008B879C87AD87BE876B857C858D859E85D7
:1025300020E030E04AE755E40E941F02DC01CB01B5
:102540008F839887A987BA876F81788589859A85CF
:1025500020E030E040E85FE30E94250488232CF46B
:1025600081E090E09E838D833FC06F81788589856F
:102570009A8520E03FEF4FE757E40E94C503181605
:102580004CF56B857C858D859E8520E030E040E2B2
:1025900051E40E941F02DC01CB01BC01CD010E946D
:1025A0004900DC01CB019E838D830FC080E991E05F
:1025B0009C838B838B819C810197F1F79C838B8318
:1025C0008D819E8101979E838D838D819E81009751
:1025D00069F714C06F81788589859A850E944900C2
:1025E000DC01CB019E838D838D819E819A838983BB
:1025F00089819A810197F1F79A838983A6960FB60C
:10260000F894DEBF0FBECDBFCF91DF910895DF9369
:10261000CF9300D00F92CDB7DEB78B838B8182959D
:102620008F708A838B81898381E061E041E00E9421
:10263000B21982E06FE04A810E94121B0E94BA1117
:1026400082E06FE049810E94121B0E94BA110F9034
:102650000F900F90CF91DF910895DF93CF9300D02B
:102660000F92CDB7DEB78B838B8182958F708A8373
:102670008B81898381E061E040E00E94B21982E0B1
:102680006FE04A810E94121B0E94BA1182E06FE043
:1026900049810E94121B0E94BA110F900F900F9057
:1026A000CF91DF910895DF93CF9300D0CDB7DEB700
:1026B0009A83898389819A8123E0883E9207E8F58D
:1026C00080E20E94501489819A8128EE33E0B9019A
:1026D0000E94AB1E24E630E0B9010E94AB1ECB0184
:1026E000805D0E94501489819A8128EE33E0B901FF
:1026F0000E94AB1E24E630E0B9010E94AB1E2AE026
:1027000030E0B9010E94AB1ECB01805D0E945014E5
:1027100089819A8128EE33E0B9010E94AB1E24E63C
:1027200030E0B9010E94AB1E2AE030E0B9010E94FE
:10273000AB1E805D0E945014AEC089819A818436A0
:10274000910580F580E20E94501480E20E945014AE
:1027500089819A8128EE33E0B9010E94AB1E24E6FC
:1027600030E0B9010E94AB1E2AE030E0B9010E94BE
:10277000AB1ECB01805D0E94501489819A8128EEA6
:1027800033E0B9010E94AB1E24E630E0B9010E949B
:10279000AB1E2AE030E0B9010E94AB1E805D0E94B2
:1027A000501479C089819A818436910580F580E240
:1027B0000E94501480E20E94501489819A8128EE70
:1027C00033E0B9010E94AB1E24E630E0B9010E945B
:1027D000AB1E2AE030E0B9010E94AB1ECB01805D48
:1027E0000E94501489819A8128EE33E0B9010E9439
:1027F000AB1E24E630E0B9010E94AB1E2AE030E0B7
:10280000B9010E94AB1E805D0E94501444C08981B2
:102810009A8128EE33E0B9010E94AB1ECB01805DA6
:102820000E94501489819A8128EE33E0B9010E94F8
:10283000AB1E24E630E0B9010E94AB1ECB01805DE7
:102840000E94501489819A8128EE33E0B9010E94D8
:10285000AB1E24E630E0B9010E94AB1E2AE030E056
:10286000B9010E94AB1ECB01805D0E94501489818A
:102870009A8128EE33E0B9010E94AB1E24E630E0D5
:10288000B9010E94AB1E2AE030E0B9010E94AB1EE4
:10289000805D0E9450140F900F90CF91DF910895AA
:1028A000DF93CF930F92CDB7DEB7898389810E94E2
:1028B00007130F90CF91DF910895DF93CF9300D04E
:1028C000CDB7DEB79A8389830AC0E981FA81808116
:1028D0000E94071389819A8101969A838983E981ED
:1028E000FA818081882389F70F900F90CF91DF9133
:1028F0000895DF93CF9300D000D0CDB7DEB78983A2
:102900006A838981282F30E03C832B838B819C81D3
:10291000009731F02B813C812130310531F009C025
:102920008A8180580E942D1304C08A8180540E949D
:102930002D130F900F900F900F90CF91DF9108956E
:10294000DF93CF93CDB7DEB781E00E942D13CF91F7
:10295000DF910895DF93CF93CDB7DEB70E94701754
:10296000CF91DF910895DF93CF9300D000D00F92E5
:10297000CDB7DEB79C838B836D838B819C81892F40
:1029800099278A838B8189830E94A7178A81882F40
:1029900090E0880F991F806A0E940D1889810E941B
:1029A000F3178D810E94F3170E94E0170F900F908C
:1029B0000F900F900F90CF91DF910895DF93CF93F9
:1029C00000D000D00F92CDB7DEB79D838C838C8171
:1029D0009D81892F99278B838C818A8319820E94FC
:1029E000A7178B81882F90E0880F991F806A0E941B
:1029F0000D188A810E94F3170E94C2178B81882FBD
:102A000090E0880F991F806A0E942A180E944B1834
:102A100089830E94E01789810F900F900F900F908B
:102A20000F90CF91DF910895DF93CF9300D0CDB772
:102A3000DEB79A8389831DC080914A0190914B0132
:102A4000AC0180914A0190914B019C0189819A814E
:102A5000FC01E20FF31F2081CA01622F0E94B31410
:102A600080914A0190914B01019690934B01809384
:102A70004A0180914A0190914B019C0189819A8180
:102A8000FC01E20FF31F80818823B1F60F900F90B5
:102A9000CF91DF910895DF93CF93CDB7DEB780E07C
:102AA00063E041E00E94CF18CF91DF910895DF935A
:102AB000CF93CDB7DEB780E063E041E00E94B2196A
:102AC000CF91DF910895DF93CF93CDB7DEB780E04C
:102AD00063E040E00E94B219CF91DF910895DF9347
:102AE000CF93CDB7DEB780E063E00E94951ACF9117
:102AF000DF910895DF93CF9300D0CDB7DEB79A83EF
:102B00008983E0E4F0E089819A81892F9927808385
:102B1000E9E2F0E089818083AAE2B0E0EAE2F0E055
:102B2000808180618C93AAE2B0E0EAE2F0E08081EB
:102B300088608C93A0E4B0E0E0E4F0E08081866AF5
:102B40008C93AAE2B0E0EAE2F0E0808180688C93A6
:102B50000F900F90CF91DF910895DF93CF930F9255
:102B6000CDB7DEB78983EBE2F0E080818295869570
:102B70008770882F90E0817090700097A1F3ECE24D
:102B8000F0E0898180830F90CF91DF910895DF93EA
:102B9000CF9300D0CDB7DEB79A8389830AC0E9818D
:102BA000FA8180810E94AD1589819A8101969A836C
:102BB0008983E981FA818081882389F70F900F90BA
:102BC000CF91DF910895DF93CF9300D0CDB7DEB7DB
:102BD0009A83898389819A8128EE33E0B9010E9422
:102BE000AB1ECB01805D0E94AD1589819A8128EED4
:102BF00033E0B9010E94AB1E24E630E0B9010E9427
:102C0000AB1ECB01805D0E94AD1589819A8128EEB3
:102C100033E0B9010E94AB1E24E630E0B9010E9406
:102C2000AB1E2AE030E0B9010E94AB1ECB01805DF3
:102C30000E94AD1589819A8128EE33E0B9010E9486
:102C4000AB1E24E630E0B9010E94AB1E2AE030E062
:102C5000B9010E94AB1E805D0E94AD150F900F90D0
:102C6000CF91DF910895DF93CF930F92CDB7DEB769
:102C7000EBE2F0E0808188232CF4ECE2F0E080814C
:102C8000898301C0198289810F90CF91DF910895C6
:102C90001F920F920FB60F9211242F933F934F93D1
:102CA0005F936F937F938F939F93AF93BF93EF93B4
:102CB000FF93DF93CF93CDB7DEB780914D01882F7F
:102CC00090E0ECE2F0E02081FC01EC58FE4F208324
:102CD00080914D01882F90E0FC01EC58FE4F8081DF
:102CE0008D3049F410924D0181E080934E0181E0D6
:102CF0000E94610F08C080914D018F5F80934D014C
:102D000080E00E94610FCF91DF91FF91EF91BF9121
:102D1000AF919F918F917F916F915F914F913F9173
:102D20002F910F900FBE0F901F901895DF93CF93A8
:102D3000CDB7DEB7AFE5B0E0EFE5F0E080818068C9
:102D40008C93CF91DF910895DF93CF93CDB7DEB70A
:102D5000AFE5B0E0EFE5F0E080818F778C93CF9125
:102D6000DF910895DF93CF9300D00F92CDB7DEB7F8
:102D700089838981282F30E03B832A838A819B8144
:102D80008130910589F02A813B8122303105A1F003
:102D90008A819B810097B9F4ABE5B0E0EBE5F0E008
:102DA000808180648C930FC0ABE5B0E0EBE5F0E090
:102DB000808180688C9307C0ABE5B0E0EBE5F0E084
:102DC000808180628C930F900F900F90CF91DF9154
:102DD0000895DF93CF9300D00F92CDB7DEB78983EC
:102DE0008981282F30E03B832A838A819B8181302F
:102DF000910589F02A813B8122303105A1F08A8139
:102E00009B810097B9F4ABE5B0E0EBE5F0E08081A1
:102E10008F7B8C930FC0ABE5B0E0EBE5F0E08081F9
:102E20008F778C9307C0ABE5B0E0EBE5F0E08081F5
:102E30008F7D8C930F900F900F90CF91DF9108951D
:102E4000DF93CF9300D000D0CDB7DEB789836A83FC
:102E50008981282F30E03C832B838B819C818130BA
:102E6000910591F02B813C8122303105E9F08B8175
:102E70009C81009771F5A5E5B0E0E5E5F0E0908173
:102E80008A81892B8C9325C0A5E5B0E0E5E5F0E0CB
:102E90008081282F8A81882F90E0880F991F880FC2
:102EA000991F822B8C9315C08A81823041F4A4E54E
:102EB000B0E0E4E5F0E080818F7B8C930AC08A81EA
:102EC000833039F4A4E5B0E0E4E5F0E0808180648B
:102ED0008C930F900F900F900F90CF91DF910895EA
:102EE000DF93CF93CDB7DEB7E0E2F0E08CE08083F4
:102EF000A6E5B0E0E6E5F0E0808184648C93CF91B4
:102F0000DF910895DF93CF930F92CDB7DEB789831A
:102F1000A2E2B0E0E2E2F0E0808181608C93A2E284
:102F2000B0E0E2E2F0E08081282F8981882F90E0F4
:102F3000880F991F822B8C93A6E5B0E0E6E5F0E0C0
:102F4000808184648C930F90CF91DF910895DF93FB
:102F5000CF930F92CDB7DEB7E6E5F0E080EA80834D
:102F6000E6E5F0E080818823DCF70E946118883074
:102F700011F0198202C081E0898389810F90CF917D
:102F8000DF910895DF93CF930F92CDB7DEB7A6E51B
:102F9000B0E0E6E5F0E08081806A8C93E6E5F0E061
:102FA00080818823DCF70E946118803111F019823A
:102FB00002C081E0898389810F90CF91DF910895CC
:102FC000DF93CF93CDB7DEB7A6E5B0E0E6E5F0E05E
:102FD000808180698C93E6E5F0E080818823DCF7CE
:102FE000CF91DF910895DF93CF930F92CDB7DEB7E6
:102FF0008983E3E2F0E089818083A6E5B0E0E6E53D
:10300000F0E0808180688C93E6E5F0E080818823A1
:10301000DCF70F90CF91DF910895DF93CF9300D02D
:103020000F92CDB7DEB78A8319828A81880F898390
:1030300089810E94F3170E946118883111F01B8268
:1030400002C081E08B838B810F900F900F90CF9106
:10305000DF910895DF93CF9300D00F92CDB7DEB705
:103060008A8319828A81882F90E0880F991F816056
:10307000898389810E94F3170E946118803411F0BE
:103080001B8202C081E08B838B810F900F900F9089
:10309000CF91DF910895DF93CF93CDB7DEB7A6E54B
:1030A000B0E0E6E5F0E0808180688C93E6E5F0E052
:1030B00080818823DCF7E3E2F0E08081CF91DF912B
:1030C0000895DF93CF930F92CDB7DEB7E1E2F0E042
:1030D0008081887F898389810F90CF91DF910895C6
:1030E000DF93CF9300D00F92CDB7DEB79A83898359
:1030F0006B83ECE3F0E08081882F90E08270907029
:103100000097B9F7EEE3F0E089818083EFE3F0E028
:1031100089819A81892F99278083EDE3F0E08B8163
:103120008083ACE3B0E0ECE3F0E0808184608C93DA
:10313000ACE3B0E0ECE3F0E0808182608C930F9030
:103140000F900F90CF91DF910895DF93CF9300D030
:10315000CDB7DEB79A838983ECE3F0E08081882FD6
:1031600090E0827090700097B9F7EEE3F0E089810B
:103170008083EFE3F0E089819A81892F992780830A
:10318000ACE3B0E0ECE3F0E0808181608C93EDE3B0
:10319000F0E080810F900F90CF91DF910895DF9341
:1031A000CF9300D000D00F92CDB7DEB789836A836A
:1031B0004B838981282F30E03D832C838C819D8136
:1031C0008130910509F443C02C813D8122303105C5
:1031D0002CF48C819D81009771F0BCC02C813D81C5
:1031E0002230310509F45FC08C819D8183309105C7
:1031F00009F485C0AFC08B818823A9F4AAE3B0E0AD
:10320000EAE3F0E08081482F8A81282F30E081E0D6
:1032100090E0022E02C0880F991F0A94E2F7809571
:1032200084238C9397C0AAE3B0E0EAE3F0E08081C6
:10323000482F8A81282F30E081E090E0022E02C0E2
:10324000880F991F0A94E2F7842B8C9383C08B819B
:103250008823A9F4A7E3B0E0E7E3F0E08081482FFA
:103260008A81282F30E081E090E0022E02C0880F92
:10327000991F0A94E2F7809584238C936BC0A7E38F
:10328000B0E0E7E3F0E08081482F8A81282F30E02A
:1032900081E090E0022E02C0880F991F0A94E2F7A5
:1032A000842B8C9357C08B818823A9F4A4E3B0E0CE
:1032B000E4E3F0E08081482F8A81282F30E081E02C
:1032C00090E0022E02C0880F991F0A94E2F78095C1
:1032D00084238C933FC0A4E3B0E0E4E3F0E080817A
:1032E000482F8A81282F30E081E090E0022E02C032
:1032F000880F991F0A94E2F7842B8C932BC08B8143
:103300008823A9F4A1E3B0E0E1E3F0E08081482F55
:103310008A81282F30E081E090E0022E02C0880FE1
:10332000991F0A94E2F7809584238C9313C0A1E33C
:10333000B0E0E1E3F0E08081482F8A81282F30E07F
:1033400081E090E0022E02C0880F991F0A94E2F7F4
:10335000842B8C930F900F900F900F900F90CF9124
:10336000DF910895DF93CF9300D000D00F92CDB7B7
:10337000DEB789836A834B838981282F30E03D83C0
:103380002C838C819D818130910509F443C02C816F
:103390003D81223031052CF48C819D81009771F0A4
:1033A000BCC02C813D812230310509F45FC08C8185
:1033B0009D818330910509F485C0AFC08B81813038
:1033C000A1F4ABE3B0E0EBE3F0E08081482F8A8129
:1033D000282F30E081E090E0022E02C0880F991F74
:1033E0000A94E2F7842B8C9398C0ABE3B0E0EBE354
:1033F000F0E08081482F8A81282F30E081E090E042
:10340000022E02C0880F991F0A94E2F78095842348
:103410008C9383C08B818130A1F4A8E3B0E0E8E312
:10342000F0E08081482F8A81282F30E081E090E011
:10343000022E02C0880F991F0A94E2F7842B8C9306
:103440006CC0A8E3B0E0E8E3F0E08081482F8A8117
:10345000282F30E081E090E0022E02C0880F991FF3
:103460000A94E2F7809584238C9357C08B81813036
:10347000A1F4A5E3B0E0E5E3F0E08081482F8A8184
:10348000282F30E081E090E0022E02C0880F991FC3
:103490000A94E2F7842B8C9340C0A5E3B0E0E5E307
:1034A000F0E08081482F8A81282F30E081E090E091
:1034B000022E02C0880F991F0A94E2F78095842398
:1034C0008C932BC08B818130A1F4A2E3B0E0E2E3C6
:1034D000F0E08081482F8A81282F30E081E090E061
:1034E000022E02C0880F991F0A94E2F7842B8C9356
:1034F00014C0A2E3B0E0E2E3F0E08081482F8A81CB
:10350000282F30E081E090E0022E02C0880F991F42
:103510000A94E2F7809584238C930F900F900F907C
:103520000F900F90CF91DF910895DF93CF9300D04C
:1035300000D0CDB7DEB789836A838981282F30E038
:103540003C832B838B819C818130910549F12B81B8
:103550003C81223031052CF48B819C81009761F0F5
:103560005AC02B813C812230310571F18B819C81C5
:1035700083309105E9F14FC0ABE3B0E0EBE3F0E05D
:103580008081482F8A81282F30E081E090E0022E50
:1035900002C0880F991F0A94E2F784278C933BC0DE
:1035A000A8E3B0E0E8E3F0E08081482F8A81282F8B
:1035B00030E081E090E0022E02C0880F991F0A944B
:1035C000E2F784278C9327C0A5E3B0E0E5E3F0E0C1
:1035D0008081482F8A81282F30E081E090E0022E00
:1035E00002C0880F991F0A94E2F784278C9313C0B6
:1035F000A2E3B0E0E2E3F0E08081482F8A81282F47
:1036000030E081E090E0022E02C0880F991F0A94FA
:10361000E2F784278C930F900F900F900F90CF912B
:10362000DF910895DF93CF9300D000D00F92CDB7F4
:10363000DEB789836A834B838981282F30E03D83FD
:103640002C838C819D818130910551F12C813D81AC
:10365000223031052CF48C819D81009761F04FC0A0
:103660002C813D812230310559F18C819D8183303F
:103670009105B1F144C0ABE3B0E0EBE3F0E0808151
:10368000982F8A81809589238C93ABE3B0E0EBE39C
:10369000F0E020819B818A818923822B8C932FC02B
:1036A000A8E3B0E0E8E3F0E08081982F8A8180957C
:1036B000292F28239B818A818923822B8C931FC0E9
:1036C000A5E3B0E0E5E3F0E08081982F8A81809562
:1036D000292F28239B818A818923822B8C930FC0D9
:1036E000A2E3B0E0E2E3F0E08081982F8A81809548
:1036F000292F28239B818A818923822B8C930F90E9
:103700000F900F900F900F90CF91DF910895DF935E
:10371000CF9300D000D00F92CDB7DEB78A836B83F2
:1037200019828A81282F30E03D832C834C815D8172
:103730004130510579F18C819D818230910534F4BD
:103740002C813D812115310569F06BC04C815D8173
:1037500042305105B9F18C819D818330910509F486
:1037600049C05FC0E9E3F0E08081282F30E08B8121
:10377000882F90E0A90102C0559547958A95E2F7F8
:10378000CA0181709070882319F081E0898349C053
:10379000198247C0E6E3F0E08081282F30E08B817A
:1037A000882F90E0A90102C0559547958A95E2F7C8
:1037B000CA0181709070882319F081E0898331C03B
:1037C00019822FC0E3E3F0E08081282F30E08B8165
:1037D000882F90E0A90102C0559547958A95E2F798
:1037E000CA0181709070882319F081E0898319C023
:1037F000198217C0E0E3F0E08081282F30E08B8150
:10380000882F90E0A90102C0559547958A95E2F767
:10381000CA0181709070882319F081E0898301C00A
:10382000198289810F900F900F900F900F90CF9178
:10383000DF910895DF93CF93CDB7DEB7A7E2B0E075
:10384000E7E2F0E0808180648C93E6E2F0E087E8D4
:103850008083A6E2B0E0E6E2F0E0808188608C93AD
:10386000CF91DF910895DF93CF9300D00F92CDB722
:10387000DEB789838981282F30E03B832A838A81C0
:103880009B818330910509F466C02A813B812430F5
:10389000310584F48A819B8181309105B1F12A81BF
:1038A0003B81223031050CF043C08A819B81009717
:1038B000D1F0AEC02A813B812530310509F471C0B9
:1038C0008A819B81853091050CF458C02A813B8107
:1038D0002630310509F478C08A819B8187309105B3
:1038E00009F485C095C0A7E2B0E0E7E2F0E080818E
:1038F000887F8C93A6E2B0E0E6E2F0E0808180640D
:103900008C9381E080934F0183C0A7E2B0E0E7E2AF
:10391000F0E08081887F81608C93A6E2B0E0E6E2EF
:10392000F0E0808180648C9381E08093500170C0CE
:10393000A7E2B0E0E7E2F0E08081887F82608C93CC
:10394000A6E2B0E0E6E2F0E0808180648C9381E062
:10395000809351015DC0A7E2B0E0E7E2F0E0808132
:10396000887F83608C93A6E2B0E0E6E2F0E080819D
:1039700080648C9381E0809352014AC0A7E2B0E05A
:10398000E7E2F0E08081887F84608C93A6E2B0E07B
:10399000E6E2F0E0808180648C9381E080935301C3
:1039A00037C0A7E2B0E0E7E2F0E08081887F856081
:1039B0008C93A6E2B0E0E6E2F0E0808180648C9334
:1039C00081E08093540124C0A7E2B0E0E7E2F0E098
:1039D0008081887F86608C93A6E2B0E0E6E2F0E02A
:1039E000808180648C9381E08093550111C0A7E2AF
:1039F000B0E0E7E2F0E0808187608C93A6E2B0E07F
:103A0000E6E2F0E0808180648C9381E0809356014F
:103A10000F900F900F90CF91DF910895DF93CF9388
:103A200000D00F92CDB7DEB780914F018823E1F42B
:103A3000809150018823C1F4809151018823A1F421
:103A400080915201882381F480915301882361F48D
:103A500080915401882341F480915501882321F4F9
:103A600080915601882329F081E090E09B838A832E
:103A700002C01B821A828A819B818130910519F4D0
:103A800081E0898301C0198289810F900F900F9086
:103A9000CF91DF910895DF93CF9300D00F92CDB7F0
:103AA000DEB789838981282F30E03B832A838A818E
:103AB0009B818330910509F45EC02A813B812430CB
:103AC000310584F48A819B8181309105A1F12A819D
:103AD0003B81223031050CF03EC08A819B810097EA
:103AE000D1F08FC02A813B812530310509F460C0B7
:103AF0008A819B81853091050CF44CC02A813B81E1
:103B00002630310509F462C08A819B818730910596
:103B100009F46AC076C00E940E1D882309F071C0A6
:103B200080E00E94331C80916701813009F069C0F8
:103B30001092670166C00E940E1D882309F061C0C3
:103B400081E00E94331C80916801813009F059C0E6
:103B50001092680156C00E940E1D882309F051C0C2
:103B600082E00E94331C80916901813009F049C0D4
:103B70001092690146C00E940E1D882309F041C0C1
:103B800083E00E94331C80916A018130D1F510924C
:103B90006A0137C00E940E1D882399F584E00E94B7
:103BA000331C80916B01813061F510926B0129C04B
:103BB0000E940E1D882329F585E00E94331C809108
:103BC0006C018130F1F410926C011BC00E940E1D3B
:103BD0008823B9F486E00E94331C80916D01813006
:103BE00081F410926D010DC00E940E1D882349F4CE
:103BF00087E00E94331C80916E01813011F4109295
:103C00006E010F900F900F90CF91DF910895AF92BA
:103C1000BF92CF92DF92EF92FF920F931F93DF93A9
:103C2000CF93CDB7DEB760970FB6F894DEBF0FBE67
:103C3000CDBF69837A838B839C832D833E834F839F
:103C40005887E986FA860B871C87AD86BE86CF86A5
:103C5000D88A29813A814B815C818D819E81AF8197
:103C6000B88579018A01E81AF90A0A0B1B0B2D8D18
:103C70003E8D4F8D58A18D859E85AF85B889281BB7
:103C8000390B4A0B5B0BC801B7010E948C1E7B01EC
:103C90008C0129853A854B855C858D819E81AF811C
:103CA000B88559016A01A81AB90ACA0ADB0AD601FD
:103CB000C5012D853E854F855889BC01CD010E94E7
:103CC0008C1EDC01CB01E80EF91E0A1F1B1F298583
:103CD0003A854B855C858D819E81AF81B885281B97
:103CE000390B4A0B5B0BC801B7010E94BF1EDA01FA
:103CF000C901BC01CD0160960FB6F894DEBF0FBEBE
:103D0000CDBFCF91DF911F910F91FF90EF90DF908A
:103D1000CF90BF90AF900895629FD001739FF00144
:103D2000829FE00DF11D649FE00DF11D929FF00D4B
:103D3000839FF00D749FF00D659FF00D9927729F82
:103D4000B00DE11DF91F639FB00DE11DF91FBD010D
:103D5000CF0111240895AA1BBB1B51E107C0AA1F64
:103D6000BB1FA617B70710F0A61BB70B881F991F1C
:103D70005A95A9F780959095BC01CD01089597FBC0
:103D8000092E05260ED057FD04D014D00AD0001CF1
:103D900038F450954095309521953F4F4F4F5F4FE8
:103DA0000895F6F790958095709561957F4F8F4FA8
:103DB0009F4F0895A1E21A2EAA1BBB1BFD010DC047
:103DC000AA1FBB1FEE1FFF1FA217B307E407F507CB
:103DD00020F0A21BB30BE40BF50B661F771F881FA7
:103DE000991F1A9469F760957095809590959B013D
:103DF000AC01BD01CF0108952F923F924F925F9287
:103E00006F927F928F929F92AF92BF92CF92DF92EA
:103E1000EF92FF920F931F93CF93DF93CDB7DEB74F
:103E2000CA1BDB0B0FB6F894DEBF0FBECDBF0994E3
:103E30002A88398848885F846E847D848C849B843A
:103E4000AA84B984C884DF80EE80FD800C811B8148
:103E5000AA81B981CE0FD11D0FB6F894DEBF0FBE77
:103E6000CDBFED010895DC0101C06D93415050407C
:083E7000E0F70895F894FFCF7C
:103E780053544F50200000000000000000000000D4
:103E8800504552464543544F4F2000000000000063
:103E980049542048555254532000000000000000A7
:103EA80049204841544520594F5520000000000042
:103EB80049274D204F4B2000000000000000000063
:103EC800594F5521200000000000000000000000AC
:103ED8004445434F4D5052455353494F4E200000DF
:103EE80054484154275320414D415A494E472120B7
:103EF8000049204C4F564520594F552000000000DE
:103F080000564943544F5259212000000000000038
:103F18000000000000000000000A1F1F1F1F0E0401
:103F280000041F11111111111F041F111111111F6C
:103F38001F041F1111111F1F1F041F11111F1F1F05
:103F48001F041F111F1F1F1F1F041F1F1F1F1F1FBD
:0A3F58001F0000010105051515000A
:00000001FF
